{
  "contractName": "SMTokenSale",
  "abi": [
    {
      "inputs": [
        {
          "internalType": "contract SMToken",
          "name": "_tokenContract",
          "type": "address"
        },
        {
          "internalType": "uint256",
          "name": "_tokenPrice",
          "type": "uint256"
        }
      ],
      "stateMutability": "nonpayable",
      "type": "constructor"
    },
    {
      "anonymous": false,
      "inputs": [
        {
          "indexed": false,
          "internalType": "address",
          "name": "_buyer",
          "type": "address"
        },
        {
          "indexed": false,
          "internalType": "uint256",
          "name": "_amount",
          "type": "uint256"
        }
      ],
      "name": "Sell",
      "type": "event"
    },
    {
      "inputs": [],
      "name": "tokenContract",
      "outputs": [
        {
          "internalType": "contract SMToken",
          "name": "",
          "type": "address"
        }
      ],
      "stateMutability": "view",
      "type": "function"
    },
    {
      "inputs": [],
      "name": "tokenPrice",
      "outputs": [
        {
          "internalType": "uint256",
          "name": "",
          "type": "uint256"
        }
      ],
      "stateMutability": "view",
      "type": "function"
    },
    {
      "inputs": [],
      "name": "tokensSold",
      "outputs": [
        {
          "internalType": "uint256",
          "name": "",
          "type": "uint256"
        }
      ],
      "stateMutability": "view",
      "type": "function"
    },
    {
      "inputs": [
        {
          "internalType": "uint256",
          "name": "_numberOfTokens",
          "type": "uint256"
        }
      ],
      "name": "buyTokens",
      "outputs": [],
      "stateMutability": "payable",
      "type": "function"
    }
  ],
  "bytecode": "0x608060405234801561001057600080fd5b50604051610744380380610744833981810160405281019061003291906100eb565b336000806101000a81548173ffffffffffffffffffffffffffffffffffffffff021916908373ffffffffffffffffffffffffffffffffffffffff16021790555081600160006101000a81548173ffffffffffffffffffffffffffffffffffffffff021916908373ffffffffffffffffffffffffffffffffffffffff1602179055508060028190555050506101a3565b6000815190506100d081610175565b92915050565b6000815190506100e58161018c565b92915050565b600080604083850312156100fe57600080fd5b600061010c858286016100c1565b925050602061011d858286016100d6565b9150509250929050565b60006101328261014b565b9050919050565b600061014482610127565b9050919050565b600073ffffffffffffffffffffffffffffffffffffffff82169050919050565b6000819050919050565b61017e81610139565b811461018957600080fd5b50565b6101958161016b565b81146101a057600080fd5b50565b610592806101b26000396000f3fe60806040526004361061003f5760003560e01c80633610724e14610044578063518ab2a81461006057806355a373d61461008b5780637ff9b596146100b6575b600080fd5b61005e600480360381019061005991906102ce565b6100e1565b005b34801561006c57600080fd5b50610075610212565b6040516100829190610368565b60405180910390f35b34801561009757600080fd5b506100a0610218565b6040516100ad919061034d565b60405180910390f35b3480156100c257600080fd5b506100cb61023e565b6040516100d89190610368565b60405180910390f35b6100ed81600254610244565b34146100f857600080fd5b8047101561010557600080fd5b600160009054906101000a900473ffffffffffffffffffffffffffffffffffffffff1673ffffffffffffffffffffffffffffffffffffffff1663a9059cbb33836040518363ffffffff1660e01b8152600401610162929190610324565b602060405180830381600087803b15801561017c57600080fd5b505af1158015610190573d6000803e3d6000fd5b505050506040513d601f19601f820116820180604052508101906101b491906102a5565b6101bd57600080fd5b80600360008282546101cf9190610383565b925050819055507f5e5e995ce3133561afceaa51a9a154d5db228cd7525d34df5185582c18d3df093382604051610207929190610324565b60405180910390a150565b60035481565b600160009054906101000a900473ffffffffffffffffffffffffffffffffffffffff1681565b60025481565b60008082148061026c57508282838561025d919061040a565b92508261026a91906103d9565b145b61027557600080fd5b92915050565b60008151905061028a8161052e565b92915050565b60008135905061029f81610545565b92915050565b6000602082840312156102b757600080fd5b60006102c58482850161027b565b91505092915050565b6000602082840312156102e057600080fd5b60006102ee84828501610290565b91505092915050565b61030081610464565b82525050565b61030f816104ac565b82525050565b61031e816104a2565b82525050565b600060408201905061033960008301856102f7565b6103466020830184610315565b9392505050565b60006020820190506103626000830184610306565b92915050565b600060208201905061037d6000830184610315565b92915050565b600061038e826104a2565b9150610399836104a2565b9250827fffffffffffffffffffffffffffffffffffffffffffffffffffffffffffffffff038211156103ce576103cd6104d0565b5b828201905092915050565b60006103e4826104a2565b91506103ef836104a2565b9250826103ff576103fe6104ff565b5b828204905092915050565b6000610415826104a2565b9150610420836104a2565b9250817fffffffffffffffffffffffffffffffffffffffffffffffffffffffffffffffff0483118215151615610459576104586104d0565b5b828202905092915050565b600061046f82610482565b9050919050565b60008115159050919050565b600073ffffffffffffffffffffffffffffffffffffffff82169050919050565b6000819050919050565b60006104b7826104be565b9050919050565b60006104c982610482565b9050919050565b7f4e487b7100000000000000000000000000000000000000000000000000000000600052601160045260246000fd5b7f4e487b7100000000000000000000000000000000000000000000000000000000600052601260045260246000fd5b61053781610476565b811461054257600080fd5b50565b61054e816104a2565b811461055957600080fd5b5056fea2646970667358221220dd28b4a5d1bed8d81545d5348967db2928ead8089ca23c4014a4a736c4c4f1b964736f6c63430008000033",
  "immutableReferences": {},
  "source": "pragma solidity >=0.4.0 < 0.9.0;\n\nimport \"./SMToken.sol\";\n\ncontract SMTokenSale {\n\n    address admin;\n    SMToken public tokenContract;\n    uint256 public tokenPrice;\n    uint256 public tokensSold;\n\n    event Sell(address _buyer, uint256 _amount);\n\n    constructor (SMToken _tokenContract, uint256 _tokenPrice) public {\n\n        admin = msg.sender;\n        tokenContract= _tokenContract;\n        tokenPrice = _tokenPrice;\n    }\n\n    function multiply(uint x, uint y) internal pure returns (uint z) {\n        require(y == 0 || (z = x * y) / y == x);\n    }\n\n    function buyTokens(uint256 _numberOfTokens) public payable {\n        require(msg.value == multiply(_numberOfTokens, tokenPrice));\n        require(address(this).balance >= _numberOfTokens);\n        require(tokenContract.transfer(msg.sender, _numberOfTokens));\n\n        tokensSold += _numberOfTokens;\n\n        emit Sell(msg.sender, _numberOfTokens);\n    }\n\n    /*function endSale() public {\n\n        require(msg.sender == admin);\n        require(tokenContract.transfer(admin ,address(this).balance));\n\n        payable(admin).transfer(address(this).balance);\n      \n    }*/\n\n}",
  "sourcePath": "/home/marcos/Desktop/Secure-Meeting/smt_e/truffle/contracts/SMTokenSale.sol",
  "compiler": {
    "name": "solc",
    "version": "0.8.0+commit.c7dfd78e.Emscripten.clang"
  },
  "schemaVersion": "3.4.2",
  "updatedAt": "2021-11-14T00:36:25.250Z",
  "devdoc": {
    "kind": "dev",
    "methods": {},
    "version": 1
  },
  "userdoc": {
    "kind": "user",
    "methods": {},
    "version": 1
  }
}